:100000000C949F020C94E6020C94E6020C94E60217
:100010000C94E6020C94E6020C94E6020C94E602C0
:100020000C94E6020C94E6020C94D0200C94A221CD
:100030000C9460170C94E6020C94E6020C94E60211
:100040000C94E6020C94E6020C94E6020C94E60290
:100050000C94E6020C94AD170C94E6020C94E602A4
:100060000C94E6020C94E6020C94E6020C94E60270
:100070000C94E6020C94E6020C94E6020C94E60260
:100080000C94E6020C94E6020C94E6020C94E60250
:100090000C94E6020C94E6020C94E6020C94E60240
:1000A0000C94E6020C94E6020C94E602180D180D6E
:1000B0004A0D4A0D970DB70DE00EE00EC20D5F0E12
:1000C000700E700ED00EE00EE00ED90E7C0F7C0F7D
:1000D0008E0F8E0F850F8E0F8E0F8E0F7C0F7C0F65
:1000E0008A0F8E0F8E0F8A0FA81B9E1BAB1B041C42
:1000F0000B1C0B1C041C0B1C0B1CCC1B0B1CD61B45
:10010000E01B0B1C0B1C0B1C0B1C041C0B1C0B1CEA
:10011000041C0B1CB91B0B1C0B1CF01BF01BF01B55
:10012000F01BF01BF01BF01BF01BF01B061C0B1C44
:10013000A81B9B1B0B1C0B1C0B1C0B1C0B1C0B1C5C
:100140000B1C0B1C0B1C0B1C061C0B1C0B1C041C83
:100150000B1CEE1BEE1BEE1BEE1BEE1BEE1BEE1B39
:10016000EE1BEE1B061C0F223622282336222823E4
:100170008222A5222823FB220A230103E10103E2B4
:10018000000102E10102E200290014001A00080047
:10019000150017001C0018002B4104001600070072
:1001A00009000A000B000D00E1001D001B00060005
:1001B0001900050011001000E000E300E20000005B
:1001C00000002C00000000002600250024002A006A
:1001D0004C00130012000C0023002200210000003C
:1001E000280034000F000E0020001F001E005200E7
:1001F000E500380037003600280027004F00510086
:10020000500046410000000035001E001F00200085
:10021000210022002300240001001E021F022002F0
:100220002102010001000100010022022302240238
:100230002502010001000100010001000100000091
:100240000000AD000000000042004100400030000E
:100250002F002702260225003F003E003D0001003E
:10026000330031002E002D003C003B003A00AE0070
:10027000125001000100010044003100450044001B
:100280004300010000000000010001000100010026
:100290000100010001000100010001000100010056
:1002A0000100010001000100010001000100010046
:1002B0000100010001000100010001000100000037
:1002C0000000010000000000005C010001000100CE
:1002D0000100010001000100010001000100010016
:1002E0000100010001000100010001000100010006
:1002F00001000100010001000100010001000100F6
:1003000001000100000000000000000000000000EB
:100310002A2B280000000000000000000000000060
:1003200000000029000000002C1E3420212224346B
:100330002627252E362D3738271E1F20212223243D
:1003400025263333362E37381F0405060708090AD9
:100350000B0C0D0E0F101112131415161718191A75
:100360001B1C1D2F3130232D350405060708090AF3
:100370000B0C0D0E0F101112131415161718191A55
:100380001B1C1D2F3130354C000000000000000008
:100390000000000000000000000000007E0F00D4FC
:1003A000FFFFFFC7000000780403300000001C03BB
:1003B0004700610072006200610067006500200074
:1003C00054007200750063006B00000022035400AB
:1003D00068006500560061006E0020004B0065005B
:1003E000790062006F006100720064007300000019
:1003F0000403090409023B00020100A032090400C1
:100400000001030101000921110100012240000740
:1004100005810308000A0904010001030000000926
:10042000211101000122BC000705820320000A12ED
:1004300001100100000008AEFE498801000102031E
:100440000105010902A10185020901A1000509199F
:100450000129051500250195057501810295017594
:100460000381010501093009311581257F95027548
:1004700008810609381581257F95017508810605D3
:100480000C0A38021581257F950175088106C0C0C8
:1004900005010980A101850319012AB7001501266C
:1004A000B700950175108100C0050C0901A10185F7
:1004B0000419012AA002150126A0029501751081D8
:1004C00000C005010906A1018505050719E029E716
:1004D000150025019508750181020507190029EF0E
:1004E0001500250195F075018102050819012905FE
:1004F000950575019102950175039101C0050109EA
:1005000006A101050719E029E715002501950875E1
:100510000181029501750881010507190029FF1560
:100520000026FF00950675088100050819012905B8
:10053000950575019102950175039101C000112483
:100540001FBECFEFDAE0DEBFCDBF04B603FE27C08B
:1005500080919F029091A002A091A102B091A2026D
:100560008730904BA740B04BD1F410929F0210926D
:10057000A0021092A1021092A20214BE84B7877F3B
:1005800084BF0FB6F894A89580916000886180932D
:100590006000109260000FBEE0E0F8E3099511E002
:1005A000A0E0B1E0ECE9F7E402C005900D92A23AB8
:1005B000B107D9F722E0A2EAB1E001C01D92AF393C
:1005C000B207E1F70E942F1E0C94CC230C9400007C
:1005D000ADE1B1E041E050E028E02A0F8D91E82F35
:1005E000E295EF70F0E031A18F70BA0102C0660FA2
:1005F000771F8A95E2F7CB01962F9095932391A3CD
:1006000092A1892B82A32A13E9CFA5E1B1E041E0B1
:1006100050E028E02A0F8D91E82FE295EF70F0E08E
:1006200031A18F70BA0102C0660F771F8A95E2F779
:10063000CB01962F9095932391A392A1892B82A30E
:100640002A13E9CF08956F927F928F929F92AF9273
:10065000BF92CF92DF92EF92FF920F931F93CF93AF
:10066000DF931F92CDB7DEB76C013DE1E32E31E0A1
:10067000F32E80E088248394912C58E0A52EAE0CB4
:10068000F70191917F01692E62942FE06222712C13
:10069000F30121A19F70840101C0000F9A95EAF730
:1006A000922F902B91A392A1B02EB0949B2192A354
:1006B00089830E946807E5E1F1E040E050E090E0C6
:1006C00089816191A62FA295AF70B0E090962C9190
:1006D00030E06F7002C0359527956A95E2F720FDEE
:1006E00007C0282D042E01C0220F0A94EAF701C08A
:1006F00020E0922B4F5F5F4F4830510511F7F30117
:1007000021A1B222B1A222A1022B02A3F6012081D3
:10071000291719F0908391E001C090E0892BFFEF39
:10072000CF1ADF0AAE10ACCF0F90DF91CF911F919F
:100730000F91FF90EF90DF90CF90BF90AF909F9080
:100740008F907F906F9008950C945F070C946007D2
:100750000C94AC030C94CE03CF93FB01C281CC2349
:1007600049F088329D4579F481E891E00E94ED04DA
:10077000C0E009C088329D4529F48AE791E00E94D3
:10078000ED0401C0C1E08C2FCF910895579A5F9876
:10079000569A5E98549A5C980C945C0A0C945C0A85
:1007A000CF92DF92EF92FF926B017C010E945C0A74
:1007B000C701B601FF90EF90DF90CF9008958111AF
:1007C00007C0662311F089EA01C08AEA0C94C10CC3
:1007D000089581E0089508950C94EB031F93CF933F
:1007E000DF9300D000D01F92CDB7DEB749835A8384
:1007F0003091BB0189819A81311114C0662359F06F
:10080000222349F00E94BE14182F682F89819A81F3
:100810000E94631403C00E949214182F69817A8188
:10082000812F04C00E94BE1469817A810F900F90BD
:100830000F900F900F90DF91CF911F910C9458055E
:10084000FC01262F408151816281738184810C9447
:10085000EE03CF93DF93EC0160E00E942004BE0121
:10086000DF91CF910C94EC03FF920F931F93CF93E2
:10087000DF93E82FF0E0E85FFC4FF490C82FC695B7
:10088000C695C695D0E0FE01E856FC4F04918770EE
:1008900010E0082E02C0159507950A94E2F7017042
:1008A0001127FE01E857FC4FC491D0E002C0D59556
:1008B000C7958A95E2F7C170DD270115110519F07A
:1008C00081EE0E94AA0B209719F086EE0E94AA0BD7
:1008D0008F2D0E94C10CCD2B19F086EE0E94590C71
:1008E000012B41F081EEDF91CF911F910F91FF908D
:1008F0000C94590CDF91CF911F910F91FF900895A7
:10090000EF92FF920F931F93CF93DF938C01F62EFC
:100910008AE0E82EF8018491882309F457C08130D9
:1009200009F042C0E8012196FE018491813031F442
:100930002196FE0184910E94C10C39C0823039F4A5
:10094000E8012296FE0184910E94AA0B30C08330F8
:1009500039F4E8012296FE0184910E94590C27C0C7
:10096000843029F5E8012296FE01249180E090E090
:1009700030E0205331092A30310560F4E89EA001AF
:10098000E99E500D1124CA01820F931F2196FE018A
:100990002491EECF009759F0EFE9FFE03197F1F79E
:1009A00000C000000197F6CF0E943404E8018E01D8
:1009B0000F5F1F4F8F2D882309F4ACCFEFE9FFE0C5
:1009C0003197F1F700C000008150F5CFDF91CF9152
:1009D0001F910F91FF90EF90089560E00C948004B8
:1009E0000E94EE15811102C00E948E160C94A40381
:1009F0000C94A60381E008950C94FA04CF93C82FB9
:100A00000E94AA038C2F0E94FC04CF9108950895A0
:100A10000E946C0F0E9407052FEF84E39CE0215099
:100A200080409040E1F700C000000C94D3170F9372
:100A30001F93CF93DF93EC0161E00E9420048C01AF
:100A4000BE010E94A803882349F1BE01C8010E948B
:100A5000A908882319F1BE01C8010E94FB08882358
:100A6000E9F0BE01C8010E94260A8823B9F08A81F4
:100A7000882369F001158CE5180731F00E3D1C45FF
:100A800031F40E948E160AC00E94080507C0CE01EC
:100A9000DF91CF911F910F910C94E90380E0DF91DA
:100AA000CF911F910F91089580E090E008950895EF
:100AB000E72FF0E098E0899FE00DF11D112483E01D
:100AC000EE0FFF1F8A95E1F7E60FF11DEE0FFF1FF6
:100AD000E857FE4F859194910895880F991FFC0166
:100AE000E855FC4F859194910895CF93DF930E9430
:100AF00058050E948806EC01811520E59207F0F563
:100B0000811530E4930708F0CDC0883E910500F5CB
:100B1000803E910508F0F8C0883A910570F4853A56
:100B2000910508F09FC08130910509F4EDC008F4EB
:100B3000E9C0049708F0E8C0E5C08F3B910508F4D0
:100B400099C0803C910508F4DDC0805C91099DC08E
:100B5000811540E2940758F4C11581E0D80708F0E8
:100B6000D3C0C03FD10508F4CDC0D065CDC081153C
:100B700020E3920708F08DC09F7087C0811535E58E
:100B8000930708F044C0811544E5940708F0A1C01C
:100B9000C11582E5D80708F5C11521E5D20708F08F
:100BA00084C08C2F837021E030E002C0220F331FFD
:100BB0008A95E2F73C68CE0174E0969587957A9520
:100BC000E1F78370382BCF70C695C69580E2C89F39
:100BD000E0011124C22BD32B97C02C2F26952695EC
:100BE000CE0183709927C115D34508F063C040E258
:100BF000249F90011124C1E0D0E002C0CC0FDD1F82
:100C00008A95E2F72C2B3D2BE901DC687DC081152C
:100C100049E59407A0F4C11588E5D80708F05EC03F
:100C2000C11526E5D20708F06DC08C2F0E941C0765
:100C30008F71C82FD0E0DC2FCC27D06265C0811522
:100C40003AE5930708F44FC090568115904208F09A
:100C500059C08D2F8F710E941C07DD27D0628F71C4
:100C6000D82B52C0C55AD0E0CD5ADE4FC881D0E053
:100C7000D0644AC0C85AD0E0CC0FDD1FCB5DDE4F38
:100C80000990D881C02DD4643FC00E946D05EC014D
:100C90003BC09927D3FF03C0EC01D86C35C0EC01F1
:100CA000D06C32C0DF70D06A2FC0DC2FCC27C16F70
:100CB000D06A2AC040E2249F90011124C1E0D0E014
:100CC00002C0CC0FDD1F8A95E2F7C22BD32BDA6866
:100CD0001BC0D82FCC27C46FD06A16C0DC2FCC27FE
:100CE000C06FD06A11C08F700E941C0794E0D69527
:100CF000C7959A95E1F7CF70D0E0DC2FCC27D0696B
:100D0000C82B02C0C0E0D0E0CE01DF91CF910895A2
:100D10008238910569F1B0F48133910509F46DC011
:100D200048F48932910509F463C08A32910509F4C7
:100D300069C008958533910509F455C0893391053B
:100D4000B9F00895833E910569F138F4803E91052C
:100D5000B1F0823E910509F10895863E9105A9F111
:100D6000873E9105B9F1843E910509F064C023C026
:100D70002091900220FD4FC021FD4DC0089580912B
:100D8000900280FD44C08091910280FF44C0809118
:100D9000900284FD42C083EE4DC08091900282FF9C
:100DA00038C0F5CF8091900282FD33C080919102CE
:100DB00080FD31C0ECCF8091910281FF32C08091E3
:100DC000900284FD2AC087EE35C08091900283FF97
:100DD00026C0F5CF8091900283FD21C080919102C1
:100DE00081FD1FC0ECCF8091900285FD1CC01DC00D
:100DF0008091900285FD19C016C08091900286FDF9
:100E000016C017C08091900286FD13C010C089E300
:100E100011C082EE0FC080EE0DC080E00BC086EEE8
:100E200009C084EE07C089E205C085E303C08AE2F9
:100E300001C081E390E008959091900292FF0DC06F
:100E4000282F2871283019F4877F846006C0282F46
:100E50002471243011F48B7F886093FF0DC0282FFC
:100E60002871283119F4877E846106C0282F2471E7
:100E7000243111F48B7E88612091910220FF0DC0F6
:100E8000382F3871383019F4877F816006C0382FC9
:100E90003171313011F48E7F886021FF0DC0282F11
:100EA0002871283119F4877E816106C0282F2171AD
:100EB000213111F48E7E886194FD877E0895089516
:100EC0000895E82FF0E0EC57FD4F808108950895D4
:100ED00080EA8A95F1F708950E94E802A4E8B2E05A
:100EE000ECE7F2E088E08E0F11921D928E13FCCF9A
:100EF00088E00E9490070C94F004CF938CE792E076
:100F00000E942303C82F282F48E064E872E08CE792
:100F100092E00E9491070E94F8048C2FCF910895CF
:100F20000895FF920F931F93CF93DF938C01F62EBA
:100F3000D72FC42F222349F081E08093A4010E947F
:100F400092179093A3018093A2018091A40188231A
:100F5000C1F08091A2019091A3010E949E17069773
:100F600080F0EF2DFD2FD8014C2F50E0CD01801BDC
:100F7000910B841795071CF48D918193F7CF1092F4
:100F8000A401DF91CF911F910F91FF9008950C94D0
:100F9000DF032098289A2198299A83B181701999A2
:100FA00002C090E001C092E0892B8093A7010895D0
:100FB000E091A701EE0FEE0FE093A70143B1842F5C
:100FC000817090E043B141FB222720F930E041FFDE
:100FD00002C022E030E0822B932B8E2B8093A7015E
:100FE0008F70E82FF0E0EA5AFE4F90818091A601C1
:100FF000890F8093A60184304CF08091A5018F5F0A
:101000008093A50160E080E00E94C7078091A6015F
:101010008D3F4CF48091A50181508093A50161E042
:1010200080E00E94C7078091A601837887FF03C0F4
:1010300081508C6F8F5F8093A6010895AF92BF920D
:10104000CF92DF92EF92FF920F931F93CF93DF9394
:101050007C015B01C42FD22FFC0182818823F9F02F
:101060004093AA010E9492179093A9018093A8012E
:1010700080E28C0F883008F061C0C77081E001C049
:10108000880FCA95EAF7DF91CF911F910F91FF90DA
:10109000EF90DF90CF90BF90AF900C94D40C109154
:1010A000AA01141335C08091A8019091A9010E9452
:1010B0009E176C01B701C5010E943112C816D906EE
:1010C00038F5C0E2CD0F1D17B9F080E2810F8830EE
:1010D00040F4177081E001C0880F1A95EAF70E946A
:1010E000DB0CC83048F481E09D2F977001C0880F59
:1010F0009A95EAF70E94D40C802F0E94C10CC83048
:10110000E8F4D77081E001C0880FDA95EAF70AC0E9
:1011100080E28C0F883090F4C77081E001C0880FA6
:10112000CA95EAF7DF91CF911F910F91FF90EF9051
:10113000DF90CF90BF90AF900C94DB0CDF91CF91FC
:101140001F910F91FF90EF90DF90CF90BF90AF90E5
:1011500008950F939C01CB01233F4CE5340731F1F7
:1011600088F4283DFCE53F07D9F0293D4CE53407DC
:1011700079F1273D3C45A9F506E221EE41EE67ED08
:101180007CE52BC0253FFCE53F07E1F0A8F0263FBA
:101190003C4539F507E225EE46EE66EF7CE51DC0DD
:1011A00007E225EE45EE68ED7CE517C006E221EE8C
:1011B00040EE63EF7CE511C007E225EE44EE64EFFC
:1011C0007CE50BC006E221EE42EE65EF7CE505C052
:1011D00008E221E045EE69ED7CE50E941E0880E012
:1011E00008C0FC018281882319F01092AA0101C075
:1011F00081E00F910895CF93DF93EC01FB01828191
:10120000882309F41FC1C230FCE5DF0708F41BC1C5
:10121000C6319CE5D90738F09E012A5F3C4529304C
:10122000310508F010C10E9401169093910280933D
:101230009002C031ECE5DE0709F4C3C008F041C0FC
:10124000C8308CE5D80709F49AC0F0F4C430ECE556
:10125000DE0709F487C068F4C2308CE5D80709F4CA
:1012600077C0C330DC4509F0E3C080919002826012
:1012700076C0C630ECE5DE0709F46EC008F07BC02E
:101280008091900288606BC0CC308CE5D80709F45F
:1012900085C068F4CA30ECE5DE0709F474C008F0D4
:1012A00079C00E946C0F80919002806858C0CE3047
:1012B0008CE5D80709F476C008F07FC080919002D1
:1012C0008BC0CB3FECE5DE0709F44FC018F5C33106
:1012D0008CE5D80709F47DC078F4C131ECE5DE0770
:1012E00009F473C0C231DC4509F0A2C00E946C0F42
:1012F000809190028F7733C0C5318CE5D80709F40F
:1013000072C008F486C0CA3FDC4509F091C08091E4
:1013100091023EC0CF3FFCE5DF0709F45FC058F4FF
:10132000CD3F9CE5D90709F444C008F43FC0809143
:10133000910282602DC0C130FDE5DF0709F475C060
:1013400008F45DC0C230DD4509F072C080E06EC0B7
:1013500080919002816003C08091900280618093AF
:10136000900266C08091900211C0809191028260CB
:10137000809391025DC0809190028062F0CF809155
:1013800090028064ECCF8091900288608460E7CF07
:101390008160EECF809190028E7FE1CF80919002AC
:1013A0008D7FDDCF80919002877FD9CF8091910290
:1013B00018C0809191028D7FDBCF809190028F7E4B
:1013C000CECF809190028F7DCACF809190028F7B8B
:1013D000C6CF80919002877F8B7FC1CF8091910291
:1013E0008D7F8E7FC5CF8091900282FB222720F9CE
:1013F00091E0922790FB82F990FB83F9B0CF809126
:101400009102982F909591708E7F892B90FB81F996
:10141000AFCF0E946C0F8091900287FB222720F9AA
:1014200091E0922790FB87F99ACF81E00E94901675
:1014300080919002909191020E9412160E946C0F6E
:1014400080E001C081E0DF91CF910895CF93DF93D9
:1014500086319C4541F5EB010E943E15282F8A817B
:101460004091000150910101882379F02A7A91E09E
:1014700009F490E09093AB01911102C069E201C0C0
:1014800065E3CA010E942D170AC08091AB0181114A
:1014900002C069E201C065E3CA010E9438170E94D8
:1014A0008A1580E001C081E0DF91CF91089590938B
:1014B000B1018093B0010895E091B001F091B101C4
:1014C000309721F00190F081E02D099480E008959B
:1014D000E091B001F091B101309799F020911401A1
:1014E000222359F02091900227FF07C0DC012C91A4
:1014F00011962C93119725E02C930280F381E02D17
:1015000009940895E091B001F091B101309739F05C
:1015100022E0DC012C930480F581E02D09940895EC
:101520002091AE013091AF018217930771F0909333
:10153000AF018093AE01E091B001F091B10130971D
:1015400021F00680F781E02D099408952091AC01E7
:101550003091AD018217930771F09093AD018093A4
:10156000AC01E091B001F091B101309721F000841D
:10157000F185E02D0994089585B7806885BF85B70A
:10158000806885BF0895089508950C94C40A0C944A
:10159000C6030E94BC0A0E94C30A0C94C50A81E0DB
:1015A00008950C94CF0A0E9489170E946C070E942C
:1015B000F7170E94C9070C94C70ABF92CF92DF9217
:1015C000EF92FF920F931F93CF93DF93CDB7DEB7C8
:1015D0002B970FB6F894DEBF0FBECDBF0E947D07DC
:1015E0000E94D10A811111C08FEF89838A831B82E7
:1015F0000E9492178160782F9D838C8349815A8144
:101600006B818D810E94760B42C083EBC82E81E0F6
:10161000D82E00E010E0B02E802F0E946107F60166
:10162000E1906F01E82631F40F5F1F4F083011057C
:1016300091F7DACF9091490291FF04C08B870E9405
:1016400067078B8590E0FF24F3942F2D2E21D1F096
:101650009E83BF828F2191E009F490E098870E94D9
:1016600092178160782F9A8789874E815F8168857C
:101670008A850E94760BF801ED54FE4F8081F82692
:10168000F08205C09F5FFF0C9830F9F6CDCF0E9425
:10169000D8070E94A6191091B2010E945C0A18177F
:1016A000A9F00E945C0A8093B2012B960FB6F894C1
:1016B000DEBF0FBECDBFDF91CF911F910F91FF9085
:1016C000EF90DF90CF90BF900C94FE042B960FB656
:1016D000F894DEBF0FBECDBFDF91CF911F910F9168
:1016E000FF90EF90DF90CF90BF900895CF93DF935E
:1016F000CDB7DEB72B970FB6F894DEBF0FBECDBFC8
:101700004F83588769877A878B87DE01119686E039
:10171000FD0111928A95E9F785E0FE013796019067
:101720000D928A95E1F749815A816B817C818D8187
:101730009E810E9434122B960FB6F894DEBF0FBE26
:10174000CDBFDF91CF910895FC01808191810E94EE
:10175000FF140895CF93882309F4A9C0C82F8238B5
:10176000C1F40E945C0A81FDA2C069E3809100017E
:10177000909101010E942D170E948A152FEF81EE92
:1017800094E0215080409040E1F700C0000069E300
:1017900019C0833801F50E945C0A80FD88C063E5AA
:1017A00080910001909101010E942D170E948A15DD
:1017B0002FEF81EE94E0215080409040E1F700C08F
:1017C000000063E580910001909101010E943817AB
:1017D000CF910C948A158438C1F40E945C0A82FD72
:1017E00066C067E480910001909101010E942D176D
:1017F0000E948A152FEF81EE94E0215080409040A6
:10180000E1F700C0000067E4DDCF8CEF8C0F813A78
:10181000F8F48C2F0E941E1C811149C06C2F8091FE
:101820000001909101010E94AB16882349F06C2FB2
:1018300080910001909101010E9438170E948A1541
:101840006C2F80910001909101010E942D17C0CF53
:1018500080E28C0F883048F4C77081E001C0880FA7
:10186000CA95EAF70E944115B3CFEBE5EC0FE330E0
:1018700040F4F0E0EC56FE4F808190E0CF910C9464
:10188000900AE8E5EC0FE73150F4F0E0EE0FFF1FAF
:10189000EA59FE4F80819181CF910C94A60AC03FF6
:1018A00030F08C2F0E949B18CF910C948819CF9107
:1018B0000895882309F464C0823879F40E945C0A90
:1018C00081FF5EC069E380910001909101010E9457
:1018D0002D170E948A1569E310C08338B1F40E9465
:1018E0005C0A80FF4DC063E5809100019091010189
:1018F0000E942D170E948A1563E580910001909146
:1019000001010E9438170C948A15843879F40E94DA
:101910005C0A82FF35C067E480910001909101016B
:101920000E942D170E948A1567E4E7CF9CEF980F5D
:10193000913A10F4682FE1CF90E2980F983050F46C
:10194000877091E001C0990F8A95EAF7892F0E946C
:101950004715D9CF9BE5980F933020F480E090E0B5
:101960000C94900A98E5980F973120F480E090E06D
:101970000C94A60A803F20F00E9403190C94881949
:101980000895CF93C82F0E94AA0BC93349F42FEFB3
:1019900087EE93E0215080409040E1F700C00000C6
:1019A0008C2FCF910C94590C882321F00E94411563
:1019B0000C948A150895882321F00E9447150C94F1
:1019C0008A150895BF92CF92DF92EF92FF920F9304
:1019D0001F93CF93DF937C01062FC72FFC01158146
:1019E00012951F70D281D1110E945E150E94371589
:1019F000882399F0DD2389F08C2F807F803421F0BB
:101A000080E2800F883048F082E00E94D5150E9465
:101A1000371591E0B82EB92601C0B12CCC2EC29456
:101A20008FE0C822D12CF601EA5AFF4F0C947023A4
:101A30008C2F807FCF70882311F0C295C07FDD236B
:101A400099F0CC2309F497C180E2800F883010F020
:101A5000011104C08C2F0E94411503C08C2F0E94DD
:101A600051150E948A1587C1802F0E94590CCC23E2
:101A700009F4A6C180E2800F883010F0011104C083
:101A80008C2F0E94471503C08C2F0E9457150E946F
:101A90008A1596C18C2F807FCF70803211F0C2954D
:101AA000C07F002319F00130C9F022C0DD2371F09E
:101AB000112341F0113031F40E9471158C2B0E94DA
:101AC00077157EC10E9471158C2B1DC0112319F052
:101AD000113009F475C10E94801525C0DD2321F065
:101AE000163008F06DC10EC0153008F069C11BC07A
:101AF000DD2361F0112331F0F701858180FF3BC1C7
:101B00008F7085838C2F0E94D40C5AC1112359F0F9
:101B1000093309F041C1FFEF27EE83E0F150204087
:101B20008040E1F737C18C2F0E94DB0C49C18C2F1C
:101B300086958695837090E0009719F0019761F083
:101B40003FC1DD2321F0802F9C2F937002C080E0E5
:101B500090E00E94900A3FC1DD2321F0802F9C2F4E
:101B6000937002C080E090E00E94A60A34C1802FEA
:101B7000DD2319F00E949B1802C00E9403190E94E5
:101B8000881929C18C2F837009F049C0D1111FC158
:101B9000402F429546954770440F440F602F6F7059
:101BA000862F90E0A0E0B0E0042E04C0880F991FBB
:101BB000AA1FBB1F0A94D2F704FF10C00FE010E069
:101BC00020E030E004C0000F111F221F331F4A9590
:101BD000D2F7009510952095309503C000E010E0F5
:101BE0009801C695C695C370D0E0BC01CD01602BAD
:101BF000712B822B932BC230D10559F0C330D10504
:101C000059F0219719F00E947913E1C00E946713DF
:101C1000DEC00E948B13DBC00E946513D8C0DD2399
:101C200019F08C2F817001C08695882309F4CFC0EC
:101C3000402F429546954770440F440F602F6F70B8
:101C4000862F90E0A0E0B0E0042E04C0880F991F1A
:101C5000AA1FBB1F0A94D2F704FF10C00FE010E0C8
:101C600020E030E004C0000F111F221F331F4A95EF
:101C7000D2F7009510952095309503C000E010E054
:101C80009801C695C695C370D0E0BC01CD01602B0C
:101C9000712B822B932BC230D10559F0C330D10563
:101CA00059F0219719F00E943E1491C00E942C1403
:101CB0008EC00E9450148BC00E949F1388C0CF70AA
:101CC000DD2339F08C2F0E94C513802F0E94D40C85
:101CD0007EC0802F0E94DB0C8C2F0E94E61377C001
:101CE000023F01F128F4003F41F0013FA1F03FC065
:101CF000033FF9F0043F39F13AC0DD2341F01530DC
:101D000008F05EC08C2F8F710E940B1459C01630E2
:101D100008F056C0F7CFDD2339F08C2F8F710E9469
:101D2000C5134EC0DD23C9F38C2F8F710E94E613BB
:101D300047C0DD2329F08C2F8F710E94B01340C063
:101D40000E94AB133DC0DD2349F0CF718C2F0E9460
:101D5000C51363E08C2F0E94C01532C081E00E9441
:101D6000D515123068F182E00E94D51529C0DD2317
:101D700031F0112391F2802F0E94AA0B21C0112370
:101D800099F2093349F49FEFE7EEF3E09150E04018
:101D9000F040E1F700C00000802F0E94590C10C0F5
:101DA0004C2F4F70602FC7010E9454050E94D8121B
:101DB00012C04C2F4F70602FC7010E9457050BC0F7
:101DC00028E0C21AD10884E0C816D10420F40E9489
:101DD0005C0A0E94FE04BB20D1F00E94331580FDF6
:101DE00016C0F70112820E942D150E94C513C7016B
:101DF0000E94290F0E942D15DF91CF911F910F9105
:101E0000FF90EF90DF90CF90BF900C94E613DF919E
:101E1000CF911F910F91FF90EF90DF90CF90BF90E7
:101E200008950F931F93CF93DF93EC01688179811D
:101E30008A810E940A158C010E9462140E94641318
:101E4000B801CE010E94E20CDF91CF911F910F915A
:101E50000895CF93DF93EC01888199812B813C8198
:101E6000232BE9F09F3F11F48F3FC9F0CE010E9470
:101E7000170581110CC00E943715882381F08A81D3
:101E8000882369F082E0DF91CF910C94D515CE01C3
:101E90000E94110FCE01DF91CF910C942904DF91A4
:101EA000CF9108950E945E150E946E150E948A15BA
:101EB0000E94B91A0E94881980E090E00E94900A5E
:101EC00080E090E00C94A60A8091000190910101BD
:101ED0000E9443170C94520F0E944E150C94640FED
:101EE000E92FE295EF70F0E03297EE30F105B0F4B3
:101EF000EA59FF4F0C947023803F91F018F4883E0C
:101F000068F40EC0843F51F40BC0883E48F0813F16
:101F100029F406C093FB882780F9089580E008958E
:101F200081E008950E94FF140E94700F0895CF93DE
:101F3000DF9300D000D01F92CDB7DEB70F900F9087
:101F40000F900F900F90DF91CF910895CF93DF9373
:101F500000D000D000D0CDB7DEB726960FB6F894EB
:101F6000DEBF0FBECDBFDF91CF9108951F93CF93FA
:101F7000DF93C091BC0116E08091BD01C81799F0B4
:101F8000D0E01C9FF0011D9FF00D1124E254FE4F84
:101F90004081518162817381848195810E94A60F65
:101FA0002196C770E9CFDF91CF911F91089540919D
:101FB000EE015091EF016091F0017091F10180917B
:101FC000F2019091F3010C94A60F2091BC01909125
:101FD000BD0156E02917A9F030E0529FF001539F50
:101FE000F00D1124E254FE4F7181671306C0708119
:101FF000871303C07281471306C02F5F3F4F2770BE
:10200000E9CF80E0089581E00895CF93DF93809138
:10201000F30182958F7009F051C08091F0018823FF
:1020200009F44CC08091BC01C091BD014091EE010A
:102030005091EF016091F1017091F201D6E08C179F
:10204000E9F190E061157105B1F15F3F11F44F3F87
:1020500091F1D89FF001D99FF00D1124DF01A25416
:10206000BE4F11962C911197521325C02C914213FB
:1020700022C012962C91129721111DC013962D91FA
:102080003C911497261B370B2F3A3105A0F4809111
:10209000F3018F7080618093F301ED53FE4F8081D7
:1020A0008F70806180838EEE91E00E94290FDF9116
:1020B000CF910C94B60F01968770C1CFDF91CF916D
:1020C00008958F929F92AF92BF92DF92EF92FF920C
:1020D0000F931F93CF93DF93CDB7DEB762970FB601
:1020E000F894DEBF0FBECDBF8C0185E0F801DE01A4
:1020F0001D9601900D928A95E1F7D801EC9011960A
:102100005C9111971296DC90129713968D909C908B
:1021100014979091EE012091EF016091F10170917F
:10212000F2016115710509F46CC12F3F19F49F3F4D
:1021300009F467C18EEEA82E81E0B82EF090F00170
:10214000F401E61BF70BFF2009F404C18091F301B1
:10215000382F307FEF3AF10508F0C0C0311179C057
:10216000251313C09E1111C0D1100FC08F70806154
:102170008093F3010E94D70FC5010E94290F80911F
:10218000F301D80115968C9321C0892809F457C012
:102190005F3F21F4BFEFEB1609F451C0D11018C016
:1021A00040E0652F8E2D5A8B0E94E50F5A898823B7
:1021B00079F08EEE91E00E94290FEEEEF1E086E0DC
:1021C000DF011D928A95E9F70E94D70FF12C36C1E5
:1021D0005F3F19F4BFEFEB1691F1D11030C040E032
:1021E000652F8E2D5A8B0E94E50FB82E5A898111CA
:1021F00026C0ED865E878D859E850E94FF14292F5F
:1022000022952F7030E02230310524F02430310542
:1022100034F00FC09F7049F0811107C00EC09F704D
:1022200021F0F8019581907F41F090E2980F98306D
:1022300020F0C8010E94290FBF2CFB2CFFC0FD2CF1
:10224000DD2009F4FBC08091F30181608093F301EC
:10225000BDCF251306C09E1104C0D11002C0D80105
:102260009AC0ED865E878D859E850E94920F882399
:1022700079F1DD2069F12091F301822F82958F7031
:1022800090E0029774F08091EE019091EF019887B1
:102290008F8319869B868A862C87CE0107960E949B
:1022A000290F86E0F801AEEEB1E001900D928A951B
:1022B000E1F70E9405100E94D70F0DC0251711F1FC
:1022C000ED865E878D859E850E94920F81112AC0C2
:1022D000C8010E94290FFF24F394B0C03111EECF42
:1022E000782D998A888A4E2D6D2D89890E94970FA5
:1022F0008EEE91E00E94290F86E0F50111928A95F9
:10230000E9F762CF9E11DCCFD110DACFD801159654
:102310008C93C8010E94290F86E0F50111928A95DD
:10232000E9F78CC0DD20A1F22091F301822F829584
:102330008F7090E002970CF4B4CF8091EE019091F1
:10234000EF019A8389831B829D828C822E83CE012A
:102350000196A5CFEF3AF10508F045C0FD2CDD2030
:1023600009F4B6CF25132EC09E112CC02091F30185
:1023700020FD1FC0822F82958F70D9F0D80115964D
:102380002C9315978F3049F08F5F982F9295907FFF
:10239000822F8F70892B15968C93C8010E94290F6C
:1023A00086E0F801AEEEB1E001900D928A95E1F77A
:1023B00043C086E0F801AEEEB1E001900D928A953F
:1023C000E1F73CC0ED865E878D859E850E94920F69
:1023D000811167CF8091F30181608093F301C8017F
:1023E0000E94290F2BC0782D998A888A4E2D6D2D39
:1023F00089890E94970F86E0F50111928A95E9F785
:102400001BC0DD2009F464CFED865E878D859E8537
:102410000E94920FF82E882309F45ACF86E0F80123
:10242000AEEEB1E001900D928A95E1F78EEE91E06B
:102430000E94A40B0E9405100E94D70F8F2D629658
:102440000FB6F894DEBF0FBECDBFDF91CF911F91C5
:102450000F91FF90EF90DF90BF90AF909F908F9083
:1024600008958FEA90E008951F93CF93DF93CDB73F
:10247000DEB72C970FB6F894DEBF0FBECDBF4F83EB
:10248000588769877A878B879C87CE0107960E9439
:102490006110882369F08F8198852A853B85232BDD
:1024A000F1F19F3F09F063C08F3F09F060C037C072
:1024B00086E0FE013796DE01119601900D928A9515
:1024C000E1F76F817885EA85FB85309741F17F3FA1
:1024D00011F46F3F21F12091BD0130E0C901019657
:1024E000877099274091BC0150E08417950709F443
:1024F00047C069837A83FD83EC8396E0929FD00185
:10250000939FB00D1124A254BE4FFE01319601904D
:102510000D929A95E1F78093BD010E94B60F16E0E7
:102520008091BC019091BD018917C1F1189FC00134
:10253000112482549E4F0E946110882379F1E0910A
:10254000BC011E9FF0011124E254FE4F40815181D5
:1025500062817381848195810E94A60F8091BC0164
:1025600090E00196877099278093BC01D9CF4F8165
:10257000588569857A858B859C850E94A60FCFCF6B
:102580000E946C0F1092BD011092BC01EEEEF1E0C2
:1025900086E0DF011D928A95E9F7C1CF2C960FB630
:1025A000F894DEBF0FBECDBFDF91CF911F9108958C
:1025B000EF92FF920F931F93CF93DF938C01892BA0
:1025C00009F46CC0F12CEE24E394E8012196F801A3
:1025D0008491843740F4843008F051C0813081F018
:1025E000823019F15BC0853709F444C0A8F19CE73B
:1025F000980F903708F052C08F770E94590C41C055
:102600000E5F1F4FFE01C49180E28C0F883048F4AA
:10261000C7708E2D01C0880FCA95EAF70E94611518
:1026200014C08C2F0E94AA0B2DC00E5F1F4FFE01FD
:10263000C49180E28C0F883058F4C7708E2D01C091
:10264000880FCA95EAF70E9467150E948A151AC07A
:102650008C2F0E94590C16C00E5F1F4FFE01C491B3
:10266000CC2381F08FE99FE00197F1F700C00000D3
:10267000C150F6CF0E5F1F4FFE01F49003C00E94C1
:10268000AA0B8E018F2D882309F49FCFEFE9FFE07D
:102690003197F1F700C000008150F5CFDF91CF9165
:1026A0001F910F91FF90EF90089508950C9455138A
:1026B0000E9456136093200270932102809322029D
:1026C000909323020C94520F08950C9458130F9377
:1026D0001F9300912002109121022091220230913B
:1026E0002302602B712B822B932B1F910F910C9443
:1026F00058130F931F9300912002109121022091F3
:1027000022023091230260237123822393231F919D
:102710000F910C9458130F931F9300912002109166
:102720002102209122023091230260277127822703
:1027300093271F910F910C9458130C94D0030E946F
:102740009D1360931C0270931D0280931E02909350
:102750001F020C94520F60E070E0CB010C949F13A9
:102760000F931F9341E050E060E070E08A019B010D
:1027700004C0000F111F221F331F8A95D2F7C90111
:10278000B8011F910F910C949F130F931F9341E079
:1027900050E060E070E004C0440F551F661F771FD3
:1027A0008A95D2F780911C0290911D02A0911E0281
:1027B000B0911F028A019B01082B192B2A2B3B2B5E
:1027C000C901B8011F910F910C949F130F931F9390
:1027D00041E050E060E070E004C0440F551F661F08
:1027E000771F8A95D2F740955095609570958091A6
:1027F0001C0290911D02A0911E02B0911F028A013D
:102800009B01082319232A233B23C901B8011F91E7
:102810000F910C949F130F931F9341E050E060E0E1
:1028200070E004C0440F551F661F771F8A95D2F7CA
:1028300080911C0290911D02A0911E02B0911F0276
:102840008A019B01082719272A273B27C901B801BC
:102850001F910F910C949F130F931F9300911C02D3
:1028600010911D0220911E0230911F02602B712BCE
:10287000822B932B1F910F910C949F130F931F93F7
:1028800000911C0210911D0220911E0230911F0226
:1028900060237123822393231F910F910C949F1324
:1028A0000F931F9300911C0210911D0220911E0294
:1028B00030911F0260277127822793271F910F9164
:1028C0000C949F13089528E0929F800D1124A82F47
:1028D000A695A695A695877051E001C0550F8A95DB
:1028E000EAF785E0A89FD001112420E030E070E0F5
:1028F000F901EA0FFB1FEC50FE4F4081CB01022E85
:1029000002C0969587950A94E2F781709927819580
:1029100084278523842780832F5F3F4F253031050F
:1029200039F7089528E0929F800D1124682F66954D
:1029300066956695982F977085E0689FB001112481
:1029400040E050E080E0FA01E60FF71FEC50FE4F48
:10295000208130E0092E02C0369527950A94E2F7CF
:1029600021703327042E01C0220F0A94EAF7822B2C
:102970004F5F5F4F4530510531F70895BF92CF92B9
:10298000DF92EF92FF920F931F93CF93DF938C010F
:10299000C0902002D0902102E0902202F090230209
:1029A00080911C0290911D02A0911E02B0911F0205
:1029B000C82AD92AEA2AFB2ACFE1D0E0D701C601EA
:1029C0000C2E04C0B695A795979587950A94D2F7D3
:1029D00080FF07C0BC2EB8018C2F0E94750501979F
:1029E00019F4219758F7B12C8B2DDF91CF911F91BE
:1029F0000F91FF90EF90DF90CF90BF900895CF930D
:102A0000DF93EC010E94BE14BE010E947505DF91A8
:102A1000CF9108951F93CF93DF93EB019091BB016A
:102A2000992321F0CB010E94FF1413C0882349F0A1
:102A3000CB010E94BE14182F682FCE010E94631490
:102A400004C0CB010E949214182FBE01812F0E9456
:102A50007505DF91CF911F9108958091240285958E
:102A600085958595089580912402877008959091A9
:102A70002402977081E009F480E008958091480273
:102A8000089590914802892B80934802089580957B
:102A90009091480289238093480208951092480239
:102AA000089590914702892B80934702089580955D
:102AB000909147028923809347020895109247021C
:102AC000089590914602892B80934602089580953F
:102AD00090914602892380934602089510924602FF
:102AE000089580912502089508950C94741590918D
:102AF0002502981721F0809325020C9475150895EE
:102B000080912502882329F01092250280E00C9400
:102B100075150895E0910001F0910101809148023E
:102B20008083E0910001F091010190818091470242
:102B3000892B8083E0910001F091010190818091C7
:102B40004602892B808380912502882381F0E091C1
:102B50000001F09101019081892B80838091000117
:102B6000909101010E94951681110E94801580911B
:102B70000001909101010C94680A08950C94BD1510
:102B800098E0899F90011124262B209324020E9413
:102B9000C513809124028595859585950C94BE1565
:102BA0001092240280E00C94BE152091240280959E
:102BB000822380932402982F977079F430E0482F75
:102BC000082E000C550B2417350739F0859585958F
:102BD00085950E94E6130C94D015089580E090E04E
:102BE0000E94922321E08C3E9E4F09F020E0822F2C
:102BF000089582E090E00C948A2383E090E00C94A6
:102C00008A23CF9384E090E00E948A23C82F81E238
:102C100090E00E948A232C2F30E0A901582BCA0192
:102C2000CF910895CF93C92F682F84E090E00E9440
:102C300098236C2F81E290E0CF910C949823AB0104
:102C4000BC018FE090E00C94AA23AB01BC0183E1AE
:102C500090E00C94AA2360E070E0CB010C94251660
:102C600060E070E0CB010E941F160C942B166CEEF6
:102C70007EEF80E090E00E94B62360E082E090E08A
:102C80000E94982360E083E090E00E9498231092D5
:102C9000200210922102109222021092230260E080
:102CA00084E090E00E94982360E081E290E00E943E
:102CB000982360E085E090E00E94982360E086E041
:102CC00090E00E9498236FEF87E090E00E949823A5
:102CD00040E050E0BA0188E090E00E94AA2360E062
:102CE0008DE090E00E94982340E050E0BA0188E136
:102CF00090E00E94AA2360E087E190E00E94982380
:102D000040E050E0BA018CE190E00E94AA2360E02C
:102D100080E290E00E9498230C9430160C943716B1
:102D2000682F8EE090E00C949823FC0132968091FD
:102D30001401882331F08091900287FF02C09EE148
:102D400001C096E080E0915028F021912223D9F330
:102D50008F5FF9CF0895662369F120911401222332
:102D600021F02091900227FD04C0FC0132960896C4
:102D70001DC0262F2695269526952E31D8F4FC01C8
:102D8000E20FF11D2281822F90E0677021E030E098
:102D900002C0220F331F6A95E2F72823392381E00E
:102DA000232B59F407C0E817F90721F021912613C6
:102DB000FACF02C080E0089581E008959C01FC01F3
:102DC00032969FEF80E04191461789F09F3F19F4BA
:102DD000411101C0982F8F5F8630A9F79F3F39F0CE
:102DE000F901E90FF11D97FDFA95628308950895A1
:102DF000FC01329608962081261301C0108231967C
:102E0000E817F907C1F70895262F269526952695E8
:102E10002E3168F4FC01E20FF11D677021E030E013
:102E200001C0220F6A95EAF78281282B2283089538
:102E3000262F2695269526952E3170F4FC01E20F5B
:102E4000F11D677021E030E001C0220F6A95EAF7BA
:102E50002095828128232283089520911401222322
:102E600029F02091900227FD0C9404170C94DE1693
:102E700020911401222329F02091900227FD0C9427
:102E800018170C94F81620911401FC013296222395
:102E900031F08091900287FF02C08EE101C086E090
:102EA000DF011D928A95E9F7089508950C9455174E
:102EB0000E946C0F0E945C0A0E94FE040C9456173C
:102EC0001F920F920FB60F9211248F939F93AF937F
:102ED000BF9380914A02811113C080918C0290911E
:102EE0008D02A0918E02B0918F024196A11DB11D5D
:102EF00080938C0290938D02A0938E02B0938F02E8
:102F0000BF91AF919F918F910F900FBE0F901F9027
:102F1000189582E084BD93E095BD9AEF97BD8093AC
:102F20006E0008952FB7F89480918C0290918D02D5
:102F3000A0918E02B0918F022FBF08959C014FB7D0
:102F4000F89480918C0290918D02A0918E02B091A4
:102F50008F024FBF821B930B089578941F920F929C
:102F60000FB60F9211248F939F93AF93BF938091CD
:102F70008C0290918D02A0918E02B0918F020196E9
:102F8000A11DB11D80938C0290938D02A0938E029F
:102F9000B0938F02BF91AF919F918F910F900FBE11
:102FA0000F901F90189581E08093E00080E280935D
:102FB000D8001092C9008FE19EE40197F1F700C09C
:102FC000000087E090EBDC0180939F029093A002C9
:102FD000A093A102B093A2029CE088E10FB6F894FE
:102FE000A895809360000FBE90936000FFCF0E9471
:102FF000EE15811102C00E948E160E94F915809371
:1030000049020E94011690939102809390020E94BF
:10301000FD15682F70E080E090E00E9465136091DC
:103020001C0270911D0280911E0290911F020C944F
:103030009D138091510280FF0BC06091070185E0D4
:10304000689FB001112475956795759567952BC09C
:1030500081FF09C06091070185E0689FB0011124DC
:103060007595679520C082FF07C06091070185E0D4
:10307000689FB001112417C0909150029923D1F09C
:1030800060910601961788F72091070185E0289F37
:1030900090011124929FA001939F500D112470E084
:1030A000CA010E945C236038710540F46115710506
:1030B00039F002C065E070E0862F08958FE708952B
:1030C00081E008958091510280FF08C06091030162
:1030D00070E0759567957595679521C081FF06C06D
:1030E0006091030170E07595679519C082FF04C077
:1030F0006091030170E010C090914F029923C1F0DC
:10310000609102019617A0F780910301899FC00189
:10311000112470E00E945C236038710528F4611569
:10312000710521F0862F08958FE7089581E00895B5
:1031300061E070E0F4CF803F21F40E94191881957E
:1031400004C0813F29F40E94191880935502089504
:10315000823F21F40E941918819504C0833F29F40D
:103160000E941918809354020895893F19F40E940F
:10317000621805C08A3F31F40E94621881958093DD
:10318000560208958B3F21F40E946218819504C075
:103190008C3F29F40E946218809357020895843F5F
:1031A00021F480915302816017C0853F21F4809102
:1031B0005302826011C0863F21F4809153028460E3
:1031C0000BC0873F21F480915302886005C0883F7F
:1031D00031F48091530280618093530208958D3FB2
:1031E00021F48091510281600BC08E3F21F48091C7
:1031F0005102826005C08F3F29F4809151028460A2
:10320000809351020895803F39F48091550287FFE1
:103210006AC01092550267C0813F29F4809155021F
:103220001816BCF360C090915402823F29F497FFB6
:103230005AC01092540257C0833F19F41916CCF3A8
:1032400052C090915602893F31F419160CF04BC0D0
:103250001092560248C08A3F19F497FF44C0F8CF35
:103260008B3F39F48091570287FF3DC0109257027F
:103270003AC08C3F29F4809157021816BCF333C032
:10328000843F21F4809153028E7F17C0853F21F443
:10329000809153028D7F11C0863F21F480915302AB
:1032A0008B7F0BC0873F21F480915302877F05C03D
:1032B000883F31F4809153028F7E8093530213C074
:1032C0008D3F21F4809151028E7F0BC08E3F21F4FF
:1032D000809151028D7F05C08F3F29F4809151026A
:1032E0008B7F8093510280915402811106C080919E
:1032F0005502811102C01092500280915602811134
:1033000006C080915702811102C010924F020895A9
:103310000E94921720915402211104C0209155025D
:10332000222321F090934E0280934D022091560269
:10333000211104C020915702222321F090934C02C6
:1033400080934B0282E592E00C94820AEF92FF9206
:103350000F931F93CF93DF9300D000D000D0CDB751
:10336000DEB786E0E2E5F2E0DE01119601900D9213
:103370008A95E1F7E0905402F090550200915602D0
:103380001091570210925402109255021092560258
:1033900010925702E11003C0FF2009F45DC0809134
:1033A0004D0290914E020E949E17AC0190915002E6
:1033B000992339F02091080130E02417350758F09F
:1033C0004BC0209109018AE0289F90011124241705
:1033D000350718F041C09F3F19F09F5F909350024E
:1033E000EE2061F00E9419181E1414F09FEF01C026
:1033F00091E0989F902D112490935402FF2061F04A
:103400000E9419181F1414F09FEF01C091E0989FBB
:10341000902D112490935502309154023323E1F002
:10342000209155022223C1F045EB3403C001112441
:10343000892F990F990B009709F481E0809354022A
:1034400035EB2303C0011124892F990F990B0097A5
:1034500009F481E080935502011103C0112309F49E
:103460005DC080914B0290914C020E949E17AC016E
:1034700090914F02992339F02091040130E02417F4
:10348000350758F04BC0209105018AE0289F900134
:1034900011242417350718F041C09F3F19F09F5F92
:1034A00090934F02002361F00E946218101614F0EE
:1034B0009FEF01C091E0989F902D112490935602A8
:1034C000112361F00E946218111614F09FEF01C0E1
:1034D00091E0989F902D11249093570230915602BD
:1034E0003323E1F0209157022223C1F045EB34034E
:1034F000C0011124892F990F990B009709F481E0DD
:103500008093560235EB2303C0011124892F990FB4
:10351000990B009709F481E080935702809154023F
:1035200081110BC080915502811107C08091560214
:10353000811103C08091570281110E948819EB828A
:10354000FC820D831E8386E0FE013196A2E5B2E087
:1035500001900D928A95E1F726960FB6F894DEBF9A
:103560000FBECDBFDF91CF911F910F91FF90EF90D4
:103570000895E2E5F2E086E0DF011D928A95E9F721
:103580001092500210924F0210925102089583300F
:1035900081F128F4813059F08230D1F008958530DE
:1035A00009F449C0B8F1863009F456C008958091F5
:1035B0000901262F30E0280F311D2F3F310524F45B
:1035C000680F6093090108958FEF809309010895B2
:1035D00080910801262F30E0280F311D2F3F310543
:1035E00024F4680F6093080108958FEF8093080119
:1035F000089580910701262F30E0280F311D2F3FBD
:10360000310524F4680F6093070108958FEF8093CC
:103610000701089580910601262F30E0280F311D03
:103620002F3F310524F4680F6093060108958FEF52
:1036300080930601089580910301262F30E0280F22
:10364000311D2F3F310524F4680F60930301089565
:103650008FEF80930301089580910201262F30E0BF
:10366000280F311D2F3F310524F4680F60930201AC
:1036700008958FEF809302010895833011F128F4AB
:10368000813049F0823091F00895853081F120F148
:103690008630C1F1089580910901681720F4861BD6
:1036A00080930901089510920901089580910801FD
:1036B000681720F4861B8093080108951092080172
:1036C000089580910701681720F4861B80930701F5
:1036D000089510920701089580910601681720F45B
:1036E000861B80930601089510920601089580912B
:1036F0000301681720F4861B80930301089510923C
:103700000301089580910201681720F4861B8093BD
:10371000020108951092020108950F931F93482FFC
:1037200050E0FA013597EF33F10508F074C0EC581A
:10373000FF4F0C9470230E948E1666C08091490240
:10374000817F8E7F8093490281E08093590264C01B
:103750000E94080559C080914902982F9095917058
:1037600090FB80F98093490291114EC0897F877F39
:1037700010C08091490281FB222720F991E0922715
:1037800090FB81F9809349029923F1F180914902DC
:1037900081608093490238C08091490282FB2227D0
:1037A00020F991E0922790FB82F9ECCF80914902B9
:1037B00083FB222720F991E0922790FB83F9E2CF47
:1037C0000E946C0F8091900287FB222720F991E0E4
:1037D000922790FB87F98093900216C0895301C00D
:1037E0008D5141E050E060E070E08A019B0104C02F
:1037F000000F111F221F331F8A95D2F7C901B8018C
:103800000E9465130E946C0F81E006C061E070E0C9
:1038100080E090E0F5CF80E01F910F91089580E067
:10382000089580E008958E518A3030F4E82FF0E05A
:10383000E956FE4F8081089580E00895CF93C82F08
:1038400080915902813069F018F08230C9F183C04B
:10385000E0910001F09101018081823209F07DC088
:1038600007C0E0910001F09101018081823261F492
:103870008C2F0E940F1C811104C08C2F0E948D1B65
:103880001DC081E090E01AC08C2F0E94111C811194
:1038900014C0C43179F048F4CB3079F0C03109F06C
:1038A00060C082E08093590208C0C93219F0C83361
:1038B00021F057C01092590254C081E0817053C06A
:1038C000C93289F118F5C43171F1B0F4C73009F08B
:1038D00046C08EE18093090182E3809308018AE06B
:1038E0008093070184E18093060188E080930301BF
:1038F00088E28093020133C082EE8C0F863078F527
:103900008C2F0E94131C8093580229C0CE34E9F0FA
:1039100020F4CB3421F56AE013C0C13579F0C2350B
:10392000F1F461E00DC080915802882319F01092E3
:10393000580215C081E08093590215C061E006C0AD
:10394000809158020E94C71A0AC06AE0809158020A
:103950000E943D1B04C01092590280E004C081E027
:1039600002C080E0ABCFCF91089580917A02089594
:10397000CF93DF9300D01F92CDB7DEB79091960220
:10398000943019F589837B836A8382E08093E90010
:103990008FEF9091E800815095FD06C095ED9A95C6
:1039A000F1F700008111F5CF8091E80085FF0DC08F
:1039B00040E050E063E070E0CE0101960E94C01E3E
:1039C0008091E8008E778093E8000F900F900F9021
:1039D000DF91CF910895BC0184E00C94B81CBC0128
:1039E00083E00C94B81C22E02093E9002FEF309183
:1039F000E800215035FD06C035ED3A95F1F700009D
:103A00002111F5CF2091E80025FF0BC040E050E0E8
:103A100066E070E00E94C01E8091E8008E7780937F
:103A2000E8000895CF93DF9320911401222339F009
:103A30002091900227FF03C060E222E002C068E00C
:103A400021E02093E9002FEF3091E800215035FD6F
:103A500006C035ED3A95F1F700002111F5CF209120
:103A6000E80025FF1DC0EC0180911401811105C003
:103A700040E050E068E070E003C070E040E050E0FB
:103A8000CE010E94C01E8091E8008E778093E800EE
:103A900080E2FE01AAE5B2E001900D928A95E1F77D
:103AA000DF91CF91089580919502811109C00E9404
:103AB00055200E94B2208091E20084608093E20051
:103AC0000895109295020895089508950C9458173A
:103AD00042E061EC81E00E94CF1F42E261EC82E0B3
:103AE0000C94CF1F80919802833009F460C030F4A9
:103AF000813071F0823009F499C008958A3009F458
:103B000085C08B3009F46BC0893009F0A7C020C094
:103B100080919702813A09F0A1C08091E800877FE7
:103B20008093E80080919B0290919C02892B21F464
:103B300060E28AE592E003C060E080E090E070E03F
:103B40000E940B1F8091E8008B778093E800089516
:103B500080919702813209F081C080919B029091FF
:103B60009C02029708F07AC08091E800877F8093DA
:103B7000E8008091E80082FD05C0809196028111E5
:103B8000F8CF6CC02091F3008091F20090E0922B6E
:103B9000029729F48091F1008B7F813021F480918C
:103BA000F10080937A028091E8008B7753C0809176
:103BB0009702813A09F052C080919B0290919C0239
:103BC000892B09F04BC08091E800877F8093E80043
:103BD0008091E80080FFFCCF8091140136C0809175
:103BE00097028132D9F580919B0290919C02892B9A
:103BF000A9F58091E800877F8093E8000E94042067
:103C000080919902809314010C946C0F809197021B
:103C1000813221F58091E800877F8093E8000E943F
:103C2000042080919A0280937B02089580919702EC
:103C3000813AA1F48091E800877F8093E800809129
:103C4000E80080FFFCCF80917B028093F10080919F
:103C5000E8008E778093E8000C940420089584B7E0
:103C6000877F84BF0FB6F894A89580916000886123
:103C700080936000109260000FBE90E080E80FB665
:103C8000F89480936100909361000FBE0E94C90A6E
:103C90000E9455200E94B2208091E20084608093AF
:103CA000E20078940E9441230E94D30A8AE091E0C6
:103CB0000E94570A0E94DD0AFDCF0C945F1E292F37
:103CC000332723303105C9F064F42130310581F008
:103CD0002230310509F04CC08BE390E024EF33E053
:103CE0004BC02132310521F12232310589F140C02A
:103CF00082E190E02FE234E03FC0992781309105C6
:103D000071F02CF4892BA1F5E0EFF3E00DC08230C7
:103D1000910541F0039761F5E8EAF3E005C0ECECAA
:103D2000F3E002C0EEEAF3E0849190E09F0124C04A
:103D30006115710541F061307105D1F489E090E0C1
:103D40002FE134E019C089E090E026E034E014C0AF
:103D50006115710541F06130710551F48CEB90E013
:103D600021E434E009C080E490E02DEF34E004C0A9
:103D700080E090E020E030E0FA0131832083089574
:103D8000CF92DF92EF92FF920F931F93CF93DF9327
:103D9000EC018B016A010E942320811133C0C11400
:103DA000D10439F0F60180819181081B190BC80FED
:103DB000D91FE12CF12C0115110519F18091E800B2
:103DC00085FD16C08091E8008E778093E800C114CD
:103DD000D10449F0F60180819181E80EF91EF1824B
:103DE000E08285E00FC00E942320882321F30AC0CF
:103DF00089918093F10001501109FFEFEF1AFF0A3A
:103E0000DACF80E0DF91CF911F910F91FF90EF907B
:103E1000DF90CF90089520919D0230919E02261749
:103E2000370748F06115710539F42091E8002E77C5
:103E30002093E80001C0B90140E061157105A9F1C6
:103E400020919602222309F443C0253009F442C090
:103E50002091E80023FD40C02091E80022FD32C0FF
:103E60002091E80020FFE9CF4091F3002091F2007B
:103E700030E0342BFC01CF016115710559F0283079
:103E8000310540F481918093F100615071092F5FF9
:103E90003F4FF1CF41E02830310509F040E020915B
:103EA000E8002E772093E800C8CF4111C9CF0AC09F
:103EB00080919602882361F0853061F08091E8005E
:103EC00083FD0AC08091E80082FFF2CF80E0089570
:103ED00082E0089583E0089581E0089520919D0295
:103EE00030919E022617370748F06115710539F4A5
:103EF0002091E8002E772093E80001C0B901FC0171
:103F000020E06115710591F180919602882309F4F2
:103F100040C0853009F43FC08091E80083FD3DC07A
:103F20008091E80082FD2FC08091E80080FFE9CFFA
:103F30002091F3008091F20090E0922B61157105C1
:103F400059F08830910540F424912093F100319686
:103F5000615071090196F2CF21E0089709F020E045
:103F60008091E8008E778093E800CBCF2111CCCFF1
:103F70000AC080919602882361F0853061F08091BB
:103F8000E80083FD0AC08091E80082FFF2CF80E064
:103F9000089582E0089583E0089581E00895982FC0
:103FA000973058F59093E900981739F07091EC002C
:103FB0002091ED005091F00003C0242F762F50E0A7
:103FC00021FF19C03091EB003E7F3093EB00309120
:103FD000ED003D7F3093ED003091EB003160309388
:103FE000EB007093EC002093ED005093F0002091D3
:103FF000EE0027FF07C09F5FD3CF8F708093E9004B
:1040000081E0089580E008958091970287FF11C0B4
:104010008091E80082FD05C0809196028111F8CF61
:1040200011C08091E8008B770BC0809196028823A5
:1040300049F08091E80080FFF8CF8091E8008E770A
:104040008093E80008952091E4003091E50095E622
:104050004091EC00842F817040FF22C08091E800E5
:1040600080FD1CC080919602882391F0853091F0EC
:104070008091EB0085FD10C04091E4005091E50077
:104080004217530729F39A01915011F784E00895DC
:1040900082E0089583E0089581E0089580E0089526
:1040A0004091E80042FFDECF08950E94C3200E94A5
:1040B000CB20E0EEF0E0808181608083E8EDF0E0ED
:1040C00080818F77808319BCA7EDB0E08C918E7FC3
:1040D0008C9380818F7E80831092950208950F9338
:1040E0001F93CF93DF930E94C3200E94CB20C8ED83
:1040F000D0E088818F7788838881806888838881F1
:104100008F7D888319BC10929602109292021092B1
:1041100094021092930200EE10E0F80180818B7FF0
:10412000808388818160888342E060E080E00E9433
:10413000CF1FE1EEF0E080818E7F8083E2EEF0E041
:10414000808181608083808188608083F8018081A4
:104150008E7F8083888180618883DF91CF911F91DA
:104160000F910895E8EDF0E080818F7E8083E7ED88
:10417000F0E080818160808384E082BF81E0809371
:1041800095020C946F20E8EDF0E080818E7F8083B3
:104190001092E20008951092DA001092E100089562
:1041A0001F920F920FB60F9211242F933F934F93AC
:1041B0005F936F937F938F939F93AF93BF93EF938F
:1041C000FF938091E10082FF0BC08091E20082FFAB
:1041D00007C08091E1008B7F8093E1000E94402323
:1041E0008091DA0080FF1FC08091D80080FF1BC043
:1041F0008091DA008E7F8093DA008091D90080FF71
:104200000DC080E189BD82E189BD09B400FEFDCF0A
:1042100081E0809396020E94531D05C019BC109244
:1042200096020E94611D8091E10080FF19C080917B
:10423000E20080FF15C08091E2008E7F8093E20053
:104240008091E20080618093E2008091D8008062DA
:104250008093D80019BC85E0809396020E94651D6A
:104260008091E10084FF30C08091E20084FF2CC087
:1042700080E189BD82E189BD09B400FEFDCF809156
:10428000D8008F7D8093D8008091E1008F7E80934D
:10429000E1008091E2008F7E8093E2008091E20055
:1042A00081608093E20080919202882311F084E083
:1042B00007C08091E30087FD02C081E001C083E078
:1042C000809396020E94661D8091E10083FF29C0C1
:1042D0008091E20083FF25C08091E100877F809379
:1042E000E10082E080939602109292028091E100B8
:1042F0008E7F8093E1008091E2008E7F8093E200C8
:104300008091E20080618093E20042E060E080E022
:104310000E94CF1F8091F00088608093F0000E947F
:10432000641DFF91EF91BF91AF919F918F917F910C
:104330006F915F914F913F912F910F900FBE0F9012
:104340001F9018951F920F920FB60F9211242F9362
:104350003F934F935F936F937F938F939F93AF930D
:10436000BF93CF93DF93EF93FF93C091E900CF709A
:104370008091EC00D82FD17080FDD0E81092E90038
:104380008091F000877F8093F00078940E94E6216E
:104390001092E9008091F00088608093F000CD2BAE
:1043A000CF70C093E900FF91EF91DF91CF91BF9162
:1043B000AF919F918F917F916F915F914F913F91BD
:1043C0002F910F900FBE0F901F9018951F93CF93B2
:1043D000DF93CDB7DEB7AA970FB6F894DEBF0FBE56
:1043E000CDBFE7E9F2E088E08E0F9091F100919364
:1043F0008E13FBCF0E94721D8091E80083FF28C1BD
:104400008091970290919802492F50E04A305105CF
:1044100008F01EC1FA01ED54FF4F0C947023803850
:1044200021F0823809F014C108C080919302909164
:104430009402992389F082600FC080919B028F7053
:10444000873008F005C18093E9008091EB0085FB7F
:10445000882780F91092E9009091E800977F909367
:10446000E8008093F1001092F100D0C0282F2D7F3A
:1044700009F0EEC0882319F0823061F0E9C0809124
:104480009902813009F0E4C0933009F080E0809314
:1044900094022EC08091990281112AC080919B02C2
:1044A0008F702FEF280F263008F0D2C08093E900DC
:1044B0002091EB0020FF1CC0933021F48091EB0091
:1044C000806214C09091EB0090619093EB0021E02A
:1044D00030E0A90102C0440F551F8A95E2F74093CE
:1044E000EA001092EA008091EB0088608093EB0074
:1044F0001092E9008091E800877F8093E8000E9495
:104500000420A6C08111A4C0109199021F77809148
:10451000E3008078812B8093E3008091E800877F1F
:104520008093E8000E9404208091E80080FFFCCF87
:104530008091E30080688093E300111102C082E063
:1045400001C083E08093960283C08058823008F0D7
:104550007FC08091990290919A028C3D53E095071B
:1045600079F583E08A838AE289834FB7F894DE0184
:10457000139620E03EE051E2E32FF0E05093570025
:10458000E49120FF03C0E295EF703F5FEF708E2F44
:1045900090E0EA3010F0C79601C0C0968D939D93CD
:1045A0002F5F243149F74FBF8091E800877F8093C8
:1045B000E8006AE270E0CE0101960E940B1F15C070
:1045C00060919B0270919C02AE014F5F5F4F0E9411
:1045D0005D1EBC01892BE1F19091E800977F9093DB
:1045E000E80089819A810E946E1F8091E8008B7794
:1045F0008093E8002DC0803859F58091E800877FCE
:104600008093E800809192028093F1008091E8000D
:104610008E7773CF81111CC0909199029230C0F4B3
:104620008091E800877F8093E800909392020E9437
:10463000042080919202811106C08091E30087FDE1
:1046400002C081E001C084E0809396020E94681D50
:104650008091E80083FF0AC08091E800877F809303
:10466000E8008091EB0080628093EB00AA960FB681
:10467000F894DEBF0FBECDBFDF91CF911F9108959B
:104680000895CF93809196028823A1F0C091E9000C
:10469000CF709091EC00892F817090FD80E8C82B3D
:1046A0001092E9008091E80083FD0E94E621CF701E
:1046B000C093E900CF91089597FB072E16F400945C
:1046C00007D077FD09D00E94762307FC05D03EF481
:1046D000909581959F4F0895709561957F4F0895AE
:1046E000EE0FFF1F0590F491E02D0994AA1BBB1B50
:1046F00051E107C0AA1FBB1FA617B70710F0A61BE2
:10470000B70B881F991F5A95A9F780959095BC0102
:10471000CD010895F999FECF92BD81BDF89A9927F0
:1047200080B50895A8E1B0E042E050E00C94BE23CB
:10473000262FF999FECF92BD81BDF89A019700B45A
:10474000021639F01FBA20BD0FB6F894FA9AF99AFA
:104750000FBE08950396272F0E9499230E94982345
:10476000252F0E949923242F0C9499230196272FFB
:104770000E9499230C949823DC01CB01FC01F99948
:10478000FECF06C0F2BDE1BDF89A319600B40D929D
:0C47900041505040B8F70895F894FFCF56
:10479C0026022808641E140A321EB51C121DF31CB6
:1047AC00EF1CEB1C01323395353666F7F6F0F1F45D
:1047BC00F537929334E200E900EA00B500B600B791
:1047CC0000CD008301CC008A0192019401210223C7
:1047DC000224022502260227022A02B300B4006F2B
:1047EC0000700081828300FF0100010000FFFF00C8
:1047FC0000010001FF00E200E900EA00B500B6008C
:10480C00B700CD008301CC008A01920194012102F2
:10481C00230224022502260227022A02B300B40036
:10482C006F007000818283010203040506070809EA
:02483C0000007A
:00000001FF
